{
  "contractName": "BankKYC",
  "abi": [
    {
      "inputs": [],
      "stateMutability": "nonpayable",
      "type": "constructor"
    },
    {
      "inputs": [
        {
          "internalType": "string",
          "name": "bank_Name",
          "type": "string"
        },
        {
          "internalType": "address",
          "name": "bank_address",
          "type": "address"
        }
      ],
      "name": "Add_Bank",
      "outputs": [],
      "stateMutability": "nonpayable",
      "type": "function"
    },
    {
      "inputs": [
        {
          "internalType": "string",
          "name": "customer_Name",
          "type": "string"
        },
        {
          "internalType": "string",
          "name": "customer_data",
          "type": "string"
        }
      ],
      "name": "Add_Customer",
      "outputs": [],
      "stateMutability": "nonpayable",
      "type": "function"
    },
    {
      "inputs": [
        {
          "internalType": "string",
          "name": "customer_Name",
          "type": "string"
        }
      ],
      "name": "Perform_KYC",
      "outputs": [],
      "stateMutability": "nonpayable",
      "type": "function"
    },
    {
      "inputs": [
        {
          "internalType": "address",
          "name": "bank_address",
          "type": "address"
        }
      ],
      "name": "Block_add_Customer",
      "outputs": [],
      "stateMutability": "nonpayable",
      "type": "function"
    },
    {
      "inputs": [
        {
          "internalType": "address",
          "name": "bank_address",
          "type": "address"
        }
      ],
      "name": "Allow_add_Customer",
      "outputs": [],
      "stateMutability": "nonpayable",
      "type": "function"
    },
    {
      "inputs": [
        {
          "internalType": "address",
          "name": "bank_address",
          "type": "address"
        }
      ],
      "name": "Block_add_KYC",
      "outputs": [],
      "stateMutability": "nonpayable",
      "type": "function"
    },
    {
      "inputs": [
        {
          "internalType": "address",
          "name": "bank_address",
          "type": "address"
        }
      ],
      "name": "Allow_add_KYC",
      "outputs": [],
      "stateMutability": "nonpayable",
      "type": "function"
    },
    {
      "inputs": [
        {
          "internalType": "string",
          "name": "customer_Name",
          "type": "string"
        }
      ],
      "name": "View_Customer_Details",
      "outputs": [
        {
          "internalType": "string",
          "name": "",
          "type": "string"
        },
        {
          "internalType": "string",
          "name": "",
          "type": "string"
        },
        {
          "internalType": "bool",
          "name": "",
          "type": "bool"
        }
      ],
      "stateMutability": "view",
      "type": "function",
      "constant": true
    },
    {
      "inputs": [
        {
          "internalType": "address",
          "name": "bank_address",
          "type": "address"
        }
      ],
      "name": "View_Bank_Details",
      "outputs": [
        {
          "internalType": "string",
          "name": "",
          "type": "string"
        },
        {
          "internalType": "address",
          "name": "",
          "type": "address"
        },
        {
          "internalType": "uint256",
          "name": "",
          "type": "uint256"
        },
        {
          "internalType": "bool",
          "name": "",
          "type": "bool"
        },
        {
          "internalType": "bool",
          "name": "",
          "type": "bool"
        }
      ],
      "stateMutability": "view",
      "type": "function",
      "constant": true
    }
  ],
  "bytecode": "0x608060405234801561001057600080fd5b50336000806101000a81548173ffffffffffffffffffffffffffffffffffffffff021916908373ffffffffffffffffffffffffffffffffffffffff1602179055506118d2806100606000396000f3fe608060405234801561001057600080fd5b50600436106100935760003560e01c80639b05c732116100665780639b05c73214610120578063b878684c1461013c578063f0a9dd2c14610158578063f61d1df514610174578063fa0d3a681461019057610093565b80631ebf650f146100985780634940da9f146100b457806370dbc2f8146100e85780638419aab314610104575b600080fd5b6100b260048036038101906100ad9190610fc9565b6101c2565b005b6100ce60048036038101906100c9919061109f565b610343565b6040516100df95949392919061118e565b60405180910390f35b61010260048036038101906100fd919061109f565b610572565b005b61011e600480360381019061011991906111e8565b61065e565b005b61013a6004803603810190610135919061109f565b61081d565b005b6101566004803603810190610151919061109f565b610908565b005b610172600480360381019061016d919061109f565b6109f3565b005b61018e60048036038101906101899190611244565b610bb0565b005b6101aa60048036038101906101a59190611244565b610cd4565b6040516101b99392919061128d565b60405180910390f35b600160003373ffffffffffffffffffffffffffffffffffffffff1673ffffffffffffffffffffffffffffffffffffffff16815260200190815260200160002060030160009054906101000a900460ff16610251576040517f08c379a000000000000000000000000000000000000000000000000000000000815260040161024890611344565b60405180910390fd5b60405180608001604052808381526020018281526020013373ffffffffffffffffffffffffffffffffffffffff1681526020016000151581525060028360405161029b91906113a0565b908152602001604051809103902060008201518160000190816102be91906115c3565b5060208201518160010190816102d491906115c3565b5060408201518160020160006101000a81548173ffffffffffffffffffffffffffffffffffffffff021916908373ffffffffffffffffffffffffffffffffffffffff16021790555060608201518160020160146101000a81548160ff0219169083151502179055509050505050565b6060600080600080600160008773ffffffffffffffffffffffffffffffffffffffff1673ffffffffffffffffffffffffffffffffffffffff168152602001908152602001600020600001600160008873ffffffffffffffffffffffffffffffffffffffff1673ffffffffffffffffffffffffffffffffffffffff16815260200190815260200160002060010160009054906101000a900473ffffffffffffffffffffffffffffffffffffffff16600160008973ffffffffffffffffffffffffffffffffffffffff1673ffffffffffffffffffffffffffffffffffffffff16815260200190815260200160002060020154600160008a73ffffffffffffffffffffffffffffffffffffffff1673ffffffffffffffffffffffffffffffffffffffff16815260200190815260200160002060030160009054906101000a900460ff16600160008b73ffffffffffffffffffffffffffffffffffffffff1673ffffffffffffffffffffffffffffffffffffffff16815260200190815260200160002060030160019054906101000a900460ff168480546104df906113e6565b80601f016020809104026020016040519081016040528092919081815260200182805461050b906113e6565b80156105585780601f1061052d57610100808354040283529160200191610558565b820191906000526020600020905b81548152906001019060200180831161053b57829003601f168201915b505050505094509450945094509450945091939590929450565b60008054906101000a900473ffffffffffffffffffffffffffffffffffffffff1673ffffffffffffffffffffffffffffffffffffffff163373ffffffffffffffffffffffffffffffffffffffff1614610600576040517f08c379a00000000000000000000000000000000000000000000000000000000081526004016105f790611707565b60405180910390fd5b6000600160008373ffffffffffffffffffffffffffffffffffffffff1673ffffffffffffffffffffffffffffffffffffffff16815260200190815260200160002060030160016101000a81548160ff02191690831515021790555050565b60008054906101000a900473ffffffffffffffffffffffffffffffffffffffff1673ffffffffffffffffffffffffffffffffffffffff163373ffffffffffffffffffffffffffffffffffffffff16146106ec576040517f08c379a00000000000000000000000000000000000000000000000000000000081526004016106e390611707565b60405180910390fd5b6040518060a001604052808381526020018273ffffffffffffffffffffffffffffffffffffffff1681526020016000815260200160001515815260200160001515815250600160008373ffffffffffffffffffffffffffffffffffffffff1673ffffffffffffffffffffffffffffffffffffffff168152602001908152602001600020600082015181600001908161078491906115c3565b5060208201518160010160006101000a81548173ffffffffffffffffffffffffffffffffffffffff021916908373ffffffffffffffffffffffffffffffffffffffff1602179055506040820151816002015560608201518160030160006101000a81548160ff02191690831515021790555060808201518160030160016101000a81548160ff0219169083151502179055509050505050565b60008054906101000a900473ffffffffffffffffffffffffffffffffffffffff1673ffffffffffffffffffffffffffffffffffffffff163373ffffffffffffffffffffffffffffffffffffffff16146108ab576040517f08c379a00000000000000000000000000000000000000000000000000000000081526004016108a290611707565b60405180910390fd5b60018060008373ffffffffffffffffffffffffffffffffffffffff1673ffffffffffffffffffffffffffffffffffffffff16815260200190815260200160002060030160016101000a81548160ff02191690831515021790555050565b60008054906101000a900473ffffffffffffffffffffffffffffffffffffffff1673ffffffffffffffffffffffffffffffffffffffff163373ffffffffffffffffffffffffffffffffffffffff1614610996576040517f08c379a000000000000000000000000000000000000000000000000000000000815260040161098d90611707565b60405180910390fd5b60018060008373ffffffffffffffffffffffffffffffffffffffff1673ffffffffffffffffffffffffffffffffffffffff16815260200190815260200160002060030160006101000a81548160ff02191690831515021790555050565b60008054906101000a900473ffffffffffffffffffffffffffffffffffffffff1673ffffffffffffffffffffffffffffffffffffffff163373ffffffffffffffffffffffffffffffffffffffff1614610a81576040517f08c379a0000000000000000000000000000000000000000000000000000000008152600401610a7890611707565b60405180910390fd5b600073ffffffffffffffffffffffffffffffffffffffff16600160008373ffffffffffffffffffffffffffffffffffffffff1673ffffffffffffffffffffffffffffffffffffffff16815260200190815260200160002060010160009054906101000a900473ffffffffffffffffffffffffffffffffffffffff1673ffffffffffffffffffffffffffffffffffffffff1603610b52576040517f08c379a0000000000000000000000000000000000000000000000000000000008152600401610b4990611773565b60405180910390fd5b6000600160008373ffffffffffffffffffffffffffffffffffffffff1673ffffffffffffffffffffffffffffffffffffffff16815260200190815260200160002060030160006101000a81548160ff02191690831515021790555050565b600160003373ffffffffffffffffffffffffffffffffffffffff1673ffffffffffffffffffffffffffffffffffffffff16815260200190815260200160002060030160019054906101000a900460ff16610c3f576040517f08c379a0000000000000000000000000000000000000000000000000000000008152600401610c3690611805565b60405180910390fd5b6001600282604051610c5191906113a0565b908152602001604051809103902060020160146101000a81548160ff021916908315150217905550600160003373ffffffffffffffffffffffffffffffffffffffff1673ffffffffffffffffffffffffffffffffffffffff1681526020019081526020016000206002016000815480929190610ccc90611854565b919050555050565b6060806000600284604051610ce991906113a0565b9081526020016040518091039020600001600285604051610d0a91906113a0565b9081526020016040518091039020600101600286604051610d2b91906113a0565b908152602001604051809103902060020160149054906101000a900460ff16828054610d56906113e6565b80601f0160208091040260200160405190810160405280929190818152602001828054610d82906113e6565b8015610dcf5780601f10610da457610100808354040283529160200191610dcf565b820191906000526020600020905b815481529060010190602001808311610db257829003601f168201915b50505050509250818054610de2906113e6565b80601f0160208091040260200160405190810160405280929190818152602001828054610e0e906113e6565b8015610e5b5780601f10610e3057610100808354040283529160200191610e5b565b820191906000526020600020905b815481529060010190602001808311610e3e57829003601f168201915b505050505091509250925092509193909250565b6000604051905090565b600080fd5b600080fd5b600080fd5b600080fd5b6000601f19601f8301169050919050565b7f4e487b7100000000000000000000000000000000000000000000000000000000600052604160045260246000fd5b610ed682610e8d565b810181811067ffffffffffffffff82111715610ef557610ef4610e9e565b5b80604052505050565b6000610f08610e6f565b9050610f148282610ecd565b919050565b600067ffffffffffffffff821115610f3457610f33610e9e565b5b610f3d82610e8d565b9050602081019050919050565b82818337600083830152505050565b6000610f6c610f6784610f19565b610efe565b905082815260208101848484011115610f8857610f87610e88565b5b610f93848285610f4a565b509392505050565b600082601f830112610fb057610faf610e83565b5b8135610fc0848260208601610f59565b91505092915050565b60008060408385031215610fe057610fdf610e79565b5b600083013567ffffffffffffffff811115610ffe57610ffd610e7e565b5b61100a85828601610f9b565b925050602083013567ffffffffffffffff81111561102b5761102a610e7e565b5b61103785828601610f9b565b9150509250929050565b600073ffffffffffffffffffffffffffffffffffffffff82169050919050565b600061106c82611041565b9050919050565b61107c81611061565b811461108757600080fd5b50565b60008135905061109981611073565b92915050565b6000602082840312156110b5576110b4610e79565b5b60006110c38482850161108a565b91505092915050565b600081519050919050565b600082825260208201905092915050565b60005b838110156111065780820151818401526020810190506110eb565b60008484015250505050565b600061111d826110cc565b61112781856110d7565b93506111378185602086016110e8565b61114081610e8d565b840191505092915050565b61115481611061565b82525050565b6000819050919050565b61116d8161115a565b82525050565b60008115159050919050565b61118881611173565b82525050565b600060a08201905081810360008301526111a88188611112565b90506111b7602083018761114b565b6111c46040830186611164565b6111d1606083018561117f565b6111de608083018461117f565b9695505050505050565b600080604083850312156111ff576111fe610e79565b5b600083013567ffffffffffffffff81111561121d5761121c610e7e565b5b61122985828601610f9b565b925050602061123a8582860161108a565b9150509250929050565b60006020828403121561125a57611259610e79565b5b600082013567ffffffffffffffff81111561127857611277610e7e565b5b61128484828501610f9b565b91505092915050565b600060608201905081810360008301526112a78186611112565b905081810360208301526112bb8185611112565b90506112ca604083018461117f565b949350505050565b7f546869732062616e6b20646f6e27742068617665207065726d697373696f6e2060008201527f746f2061646472657373206e657720637573746f6d6572730000000000000000602082015250565b600061132e6038836110d7565b9150611339826112d2565b604082019050919050565b6000602082019050818103600083015261135d81611321565b9050919050565b600081905092915050565b600061137a826110cc565b6113848185611364565b93506113948185602086016110e8565b80840191505092915050565b60006113ac828461136f565b915081905092915050565b7f4e487b7100000000000000000000000000000000000000000000000000000000600052602260045260246000fd5b600060028204905060018216806113fe57607f821691505b602082108103611411576114106113b7565b5b50919050565b60008190508160005260206000209050919050565b60006020601f8301049050919050565b600082821b905092915050565b6000600883026114797fffffffffffffffffffffffffffffffffffffffffffffffffffffffffffffffff8261143c565b611483868361143c565b95508019841693508086168417925050509392505050565b6000819050919050565b60006114c06114bb6114b68461115a565b61149b565b61115a565b9050919050565b6000819050919050565b6114da836114a5565b6114ee6114e6826114c7565b848454611449565b825550505050565b600090565b6115036114f6565b61150e8184846114d1565b505050565b5b81811015611532576115276000826114fb565b600181019050611514565b5050565b601f8211156115775761154881611417565b6115518461142c565b81016020851015611560578190505b61157461156c8561142c565b830182611513565b50505b505050565b600082821c905092915050565b600061159a6000198460080261157c565b1980831691505092915050565b60006115b38383611589565b9150826002028217905092915050565b6115cc826110cc565b67ffffffffffffffff8111156115e5576115e4610e9e565b5b6115ef82546113e6565b6115fa828285611536565b600060209050601f83116001811461162d576000841561161b578287015190505b61162585826115a7565b86555061168d565b601f19841661163b86611417565b60005b828110156116635784890151825560018201915060208501945060208101905061163e565b86831015611680578489015161167c601f891682611589565b8355505b6001600288020188555050505b505050505050565b7f4f6e6c792061646d696e2063616e2061636365737320746869732066756e637460008201527f696f6e0000000000000000000000000000000000000000000000000000000000602082015250565b60006116f16023836110d7565b91506116fc82611695565b604082019050919050565b60006020820190508181036000830152611720816116e4565b9050919050565b7f6f6f7073212e2e2e2e2e42616e6b206e6f7420666f756e640000000000000000600082015250565b600061175d6018836110d7565b915061176882611727565b602082019050919050565b6000602082019050818103600083015261178c81611750565b9050919050565b7f546869732062616e6b20646f6e27742068617665207065726d697373696f6e2060008201527f746f206f204b5943000000000000000000000000000000000000000000000000602082015250565b60006117ef6028836110d7565b91506117fa82611793565b604082019050919050565b6000602082019050818103600083015261181e816117e2565b9050919050565b7f4e487b7100000000000000000000000000000000000000000000000000000000600052601160045260246000fd5b600061185f8261115a565b91507fffffffffffffffffffffffffffffffffffffffffffffffffffffffffffffffff820361189157611890611825565b5b60018201905091905056fea2646970667358221220198f2288a0681a565eb0f13eee9011d0906a2a2035fa06b48aeec73bb1604bab64736f6c63430008110033",
  "immutableReferences": {},
  "source": "// SPDX-License-Identifier: GPL-3.0\r\n\r\npragma solidity >=0.5.9 <=0.9.0;\r\n\r\ncontract BankKYC \r\n{\r\n    address kycadmin;\r\n\r\n    constructor() \r\n    {\r\n        kycadmin = msg.sender;\r\n    }\r\n\r\n    modifier onlyadmin()\r\n    {\r\n        require(msg.sender == kycadmin, \"Only admin can access this function\");\r\n        _;\r\n    }\r\n\r\n    struct bank_struct \r\n    {\r\n        string bank_Name;\r\n        address bank_address;\r\n        uint256 KYCcount;\r\n        bool CanAddCustomer;\r\n        bool CanDoKYC;\r\n    }\r\n\r\n    struct customer_struct \r\n    {\r\n        string customer_Name;\r\n        string customer_data;\r\n        address coustomer_Bank;\r\n        bool KYC_status;\r\n    }\r\n\r\n    mapping(address => bank_struct) bankMap;\r\n    mapping(string => customer_struct) customerMap;\r\n\r\n    ////\r\n     function Add_Bank(string memory bank_Name, address bank_address) public onlyadmin\r\n    {\r\n        bankMap[bank_address] = bank_struct(bank_Name, bank_address, 0, false, false);\r\n    }\r\n\r\n    ////\r\n     function Add_Customer(string memory customer_Name, string memory customer_data) public\r\n    {\r\n        require(bankMap[msg.sender].CanAddCustomer, \"This bank don't have permission to address new customers\");\r\n        customerMap[customer_Name] = customer_struct(customer_Name, customer_data, msg.sender, false);\r\n    }\r\n    \r\n    ////\r\n    function Perform_KYC(string memory customer_Name) public \r\n    {\r\n        require(bankMap[msg.sender].CanDoKYC, \"This bank don't have permission to o KYC\");\r\n        customerMap[customer_Name].KYC_status = true;\r\n        bankMap[msg.sender].KYCcount++;\r\n    }\r\n\r\n    ////\r\n    function Block_add_Customer(address bank_address) public onlyadmin\r\n    {\r\n        require(bankMap[bank_address].bank_address != address(0),   \"oops!.....Bank not found\");\r\n        bankMap[bank_address].CanAddCustomer = false;\r\n    }\r\n\r\n    ////\r\n    function Allow_add_Customer(address bank_address) public onlyadmin \r\n    {\r\n        bankMap[bank_address].CanAddCustomer = true;\r\n    }\r\n\r\n    ////\r\n    function Block_add_KYC(address bank_address) public onlyadmin \r\n    {\r\n        bankMap[bank_address].CanDoKYC = false;\r\n    }\r\n\r\n    ////\r\n    function Allow_add_KYC(address bank_address) public onlyadmin \r\n    {\r\n        bankMap[bank_address].CanDoKYC = true;\r\n    }\r\n\r\n    ////\r\n    function View_Customer_Details(string memory customer_Name) public view\r\n        returns (string memory,string memory,bool)\r\n    {\r\n        return (\r\n            customerMap[customer_Name].customer_Name,\r\n            customerMap[customer_Name].customer_data,\r\n            customerMap[customer_Name].KYC_status\r\n        );\r\n    }\r\n\r\n    ////\r\n    function View_Bank_Details(address bank_address) public view\r\n        returns (string memory,address,uint256,bool,bool)\r\n    {\r\n        return (\r\n            bankMap[bank_address].bank_Name,\r\n            bankMap[bank_address].bank_address,\r\n            bankMap[bank_address].KYCcount,\r\n            bankMap[bank_address].CanAddCustomer,\r\n            bankMap[bank_address].CanDoKYC\r\n        );\r\n    }\r\n}\r\n",
  "sourcePath": "C:\\Users\\rohit\\OneDrive\\Desktop\\fresh try\\Auto-Lottery app\\contracts\\BankKYC.sol",
  "compiler": {
    "name": "solc",
    "version": "0.8.17+commit.8df45f5f.Emscripten.clang"
  },
  "schemaVersion": "3.4.10",
  "updatedAt": "2022-11-16T09:30:28.991Z",
  "networkType": "ethereum",
  "devdoc": {
    "kind": "dev",
    "methods": {},
    "version": 1
  },
  "userdoc": {
    "kind": "user",
    "methods": {},
    "version": 1
  }
}